:1000000000308A001828000026308400831300087E
:10001000031917280630F800F701F70B0D28F80B25
:100020000C287B30F700F70B1328800B0A280034CC
:10003000840183131F30830583161F149F141F151B
:100040009F1107309C008312A001A101A201A3010E
:10005000A401A5011C3083168500831205108510AC
:10006000FF308316860087000030880083128801E5
:1000700083160910891009118312890183161F1430
:100080009F141F159F1183121F10831609128312CC
:100090009412013094000030831694000108C7398F
:1000A00008388100831290010030F800920000307F
:1000B0008316920007309C0005081030F700F70BFC
:1000C0005F2800001C0883120D1383169D01831204
:1000D000061C822806186A28210B7E282208023C6A
:1000E000031D7E282308033C031D7E282408043CAE
:1000F000031D7E2885140814A00182280514081009
:100100000130A000861C932886188428A001A50130
:10011000A101A201A301A401051085100810081275
:10012000881208138813200B9D280914FA30A600A2
:1001300004200910FA30A6000420A008031DA128FD
:100140000910A508031D0229051DAB280519A628BD
:100150000130A100A507851DB3288519AD280230FF
:10016000A1000130A507051EBB28051AB5280330DC
:10017000A1000130A507851EC328851ABD280430BB
:10018000A1000130A507071CCB280718C52805309A
:10019000A1000130A507871CD3288718CD28063079
:1001A000A1000130A507071DDB280719D528073056
:1001B000A1000130A507871DE3288719DD28083035
:1001C000A1000130A507071EEB28071AE528093012
:1001D000A1000130A507871EF328871AED280A30F1
:1001E000A1000130A507071FFA28071BF528A10168
:1001F0000130A507871F0229871BFC280B30A100AF
:100200000130A507250B6229051D0B2905190629B3
:100210000130A200A507851D132985190D2902307B
:10022000A2000130A507051E1B29051A1529033058
:10023000A2000130A507851E2329851A1D29043037
:10024000A2000130A507071C2B2907182529053016
:10025000A2000130A507871C332987182D290630F5
:10026000A2000130A507071D3B29071935290730D2
:10027000A2000130A507871D432987193D290830B1
:10028000A2000130A507071E4B29071A452909308E
:10029000A2000130A507871E5329871A4D290A306D
:1002A000A2000130A507071F5A29071B5529A201E3
:1002B0000130A507871F6229871B5C290B30A2002C
:1002C0000130A5072508023C031DC429051D6D2921
:1002D000051968290130A300A507851D7529851911
:1002E0006F290230A3000130A507051E7D29051ADC
:1002F00077290330A3000130A507851E8529851ABB
:100300007F290430A3000130A507071C8D29071899
:1003100087290530A3000130A507871C9529871878
:100320008F290630A3000130A507071D9D29071955
:1003300097290730A3000130A507871DA529871934
:100340009F290830A3000130A507071EAD29071A11
:10035000A7290930A3000130A507871EB529871AF0
:10036000AF290A30A3000130A507071FBC29071BCE
:10037000B729A3010130A507871FC429871BBE2900
:100380000B30A3000130A5072508033C031D262AD6
:10039000051DCF290519CA290130A400A507851D0F
:1003A000D7298519D1290230A4000130A507051EDF
:1003B000DF29051AD9290330A4000130A507851EBD
:1003C000E729851AE1290430A4000130A507071C9C
:1003D000EF290718E9290530A4000130A507871C7B
:1003E000F7298718F1290630A4000130A507071D59
:1003F000FF290719F9290730A4000130A507871D37
:10040000072A8719012A0830A4000130A507071E12
:100410000F2A071A092A0930A4000130A507871EF0
:10042000172A871A112A0A30A4000130A507071FCE
:100430001E2A071B192AA4010130A507871F262A97
:10044000871B202A0B30A4000130A507250B292A81
:1004500008162508023C031D2E2A88162508033C91
:10046000031D332A08172508043C031D382A881762
:040470006828630095
:02400E00793FF8
:00000001FF
;PIC16F877A
